{
  "abi": [
    {
      "inputs": [
        {
          "internalType": "string",
          "name": "_name",
          "type": "string"
        },
        {
          "internalType": "string",
          "name": "_symbol",
          "type": "string"
        }
      ],
      "stateMutability": "nonpayable",
      "type": "constructor"
    },
    {
      "anonymous": false,
      "inputs": [
        {
          "indexed": true,
          "internalType": "address",
          "name": "owner",
          "type": "address"
        },
        {
          "indexed": true,
          "internalType": "address",
          "name": "spender",
          "type": "address"
        },
        {
          "indexed": true,
          "internalType": "uint256",
          "name": "id",
          "type": "uint256"
        }
      ],
      "name": "Approval",
      "type": "event"
    },
    {
      "anonymous": false,
      "inputs": [
        {
          "indexed": true,
          "internalType": "address",
          "name": "owner",
          "type": "address"
        },
        {
          "indexed": true,
          "internalType": "address",
          "name": "operator",
          "type": "address"
        },
        {
          "indexed": false,
          "internalType": "bool",
          "name": "approved",
          "type": "bool"
        }
      ],
      "name": "ApprovalForAll",
      "type": "event"
    },
    {
      "anonymous": false,
      "inputs": [
        {
          "indexed": true,
          "internalType": "address",
          "name": "from",
          "type": "address"
        },
        {
          "indexed": true,
          "internalType": "address",
          "name": "to",
          "type": "address"
        },
        {
          "indexed": true,
          "internalType": "uint256",
          "name": "id",
          "type": "uint256"
        }
      ],
      "name": "Transfer",
      "type": "event"
    },
    {
      "inputs": [
        {
          "internalType": "address",
          "name": "spender",
          "type": "address"
        },
        {
          "internalType": "uint256",
          "name": "id",
          "type": "uint256"
        }
      ],
      "name": "approve",
      "outputs": [],
      "stateMutability": "nonpayable",
      "type": "function"
    },
    {
      "inputs": [
        {
          "internalType": "address",
          "name": "owner",
          "type": "address"
        }
      ],
      "name": "balanceOf",
      "outputs": [
        {
          "internalType": "uint256",
          "name": "",
          "type": "uint256"
        }
      ],
      "stateMutability": "view",
      "type": "function"
    },
    {
      "inputs": [
        {
          "internalType": "uint256",
          "name": "_id",
          "type": "uint256"
        }
      ],
      "name": "burn",
      "outputs": [],
      "stateMutability": "nonpayable",
      "type": "function"
    },
    {
      "inputs": [
        {
          "internalType": "uint256",
          "name": "",
          "type": "uint256"
        }
      ],
      "name": "emitterToId",
      "outputs": [
        {
          "internalType": "address",
          "name": "",
          "type": "address"
        }
      ],
      "stateMutability": "view",
      "type": "function"
    },
    {
      "inputs": [
        {
          "internalType": "uint256",
          "name": "",
          "type": "uint256"
        }
      ],
      "name": "enabled",
      "outputs": [
        {
          "internalType": "bool",
          "name": "",
          "type": "bool"
        }
      ],
      "stateMutability": "view",
      "type": "function"
    },
    {
      "inputs": [
        {
          "internalType": "uint256",
          "name": "",
          "type": "uint256"
        }
      ],
      "name": "getApproved",
      "outputs": [
        {
          "internalType": "address",
          "name": "",
          "type": "address"
        }
      ],
      "stateMutability": "view",
      "type": "function"
    },
    {
      "inputs": [
        {
          "internalType": "address",
          "name": "",
          "type": "address"
        },
        {
          "internalType": "address",
          "name": "",
          "type": "address"
        }
      ],
      "name": "isApprovedForAll",
      "outputs": [
        {
          "internalType": "bool",
          "name": "",
          "type": "bool"
        }
      ],
      "stateMutability": "view",
      "type": "function"
    },
    {
      "inputs": [
        {
          "internalType": "address",
          "name": "_receiver",
          "type": "address"
        },
        {
          "internalType": "string",
          "name": "_tokenUri",
          "type": "string"
        }
      ],
      "name": "mintTo",
      "outputs": [
        {
          "internalType": "uint256",
          "name": "",
          "type": "uint256"
        }
      ],
      "stateMutability": "payable",
      "type": "function"
    },
    {
      "inputs": [],
      "name": "name",
      "outputs": [
        {
          "internalType": "string",
          "name": "",
          "type": "string"
        }
      ],
      "stateMutability": "view",
      "type": "function"
    },
    {
      "inputs": [
        {
          "internalType": "uint256",
          "name": "id",
          "type": "uint256"
        }
      ],
      "name": "ownerOf",
      "outputs": [
        {
          "internalType": "address",
          "name": "owner",
          "type": "address"
        }
      ],
      "stateMutability": "view",
      "type": "function"
    },
    {
      "inputs": [
        {
          "internalType": "uint256",
          "name": "_id",
          "type": "uint256"
        }
      ],
      "name": "revoke",
      "outputs": [],
      "stateMutability": "nonpayable",
      "type": "function"
    },
    {
      "inputs": [
        {
          "internalType": "address",
          "name": "from",
          "type": "address"
        },
        {
          "internalType": "address",
          "name": "to",
          "type": "address"
        },
        {
          "internalType": "uint256",
          "name": "id",
          "type": "uint256"
        }
      ],
      "name": "safeTransferFrom",
      "outputs": [],
      "stateMutability": "nonpayable",
      "type": "function"
    },
    {
      "inputs": [
        {
          "internalType": "address",
          "name": "from",
          "type": "address"
        },
        {
          "internalType": "address",
          "name": "to",
          "type": "address"
        },
        {
          "internalType": "uint256",
          "name": "id",
          "type": "uint256"
        },
        {
          "internalType": "bytes",
          "name": "data",
          "type": "bytes"
        }
      ],
      "name": "safeTransferFrom",
      "outputs": [],
      "stateMutability": "nonpayable",
      "type": "function"
    },
    {
      "inputs": [
        {
          "internalType": "address",
          "name": "operator",
          "type": "address"
        },
        {
          "internalType": "bool",
          "name": "approved",
          "type": "bool"
        }
      ],
      "name": "setApprovalForAll",
      "outputs": [],
      "stateMutability": "nonpayable",
      "type": "function"
    },
    {
      "inputs": [
        {
          "internalType": "bytes4",
          "name": "interfaceId",
          "type": "bytes4"
        }
      ],
      "name": "supportsInterface",
      "outputs": [
        {
          "internalType": "bool",
          "name": "",
          "type": "bool"
        }
      ],
      "stateMutability": "view",
      "type": "function"
    },
    {
      "inputs": [],
      "name": "symbol",
      "outputs": [
        {
          "internalType": "string",
          "name": "",
          "type": "string"
        }
      ],
      "stateMutability": "view",
      "type": "function"
    },
    {
      "inputs": [],
      "name": "tokenId",
      "outputs": [
        {
          "internalType": "uint256",
          "name": "",
          "type": "uint256"
        }
      ],
      "stateMutability": "view",
      "type": "function"
    },
    {
      "inputs": [
        {
          "internalType": "uint256",
          "name": "",
          "type": "uint256"
        }
      ],
      "name": "tokenToUri",
      "outputs": [
        {
          "internalType": "string",
          "name": "",
          "type": "string"
        }
      ],
      "stateMutability": "view",
      "type": "function"
    },
    {
      "inputs": [
        {
          "internalType": "uint256",
          "name": "_id",
          "type": "uint256"
        }
      ],
      "name": "tokenURI",
      "outputs": [
        {
          "internalType": "string",
          "name": "",
          "type": "string"
        }
      ],
      "stateMutability": "view",
      "type": "function"
    },
    {
      "inputs": [
        {
          "internalType": "address",
          "name": "",
          "type": "address"
        },
        {
          "internalType": "address",
          "name": "",
          "type": "address"
        },
        {
          "internalType": "uint256",
          "name": "",
          "type": "uint256"
        }
      ],
      "name": "transferFrom",
      "outputs": [],
      "stateMutability": "pure",
      "type": "function"
    }
  ],
  "bytecode": {
    "object": "0x60806040523480156200001157600080fd5b50604051620016153803806200161583398101604081905262000034916200012b565b8181600062000044838262000224565b50600162000053828262000224565b5050505050620002f0565b634e487b7160e01b600052604160045260246000fd5b600082601f8301126200008657600080fd5b81516001600160401b0380821115620000a357620000a36200005e565b604051601f8301601f19908116603f01168101908282118183101715620000ce57620000ce6200005e565b81604052838152602092508683858801011115620000eb57600080fd5b600091505b838210156200010f5785820183015181830184015290820190620000f0565b83821115620001215760008385830101525b9695505050505050565b600080604083850312156200013f57600080fd5b82516001600160401b03808211156200015757600080fd5b620001658683870162000074565b935060208501519150808211156200017c57600080fd5b506200018b8582860162000074565b9150509250929050565b600181811c90821680620001aa57607f821691505b602082108103620001cb57634e487b7160e01b600052602260045260246000fd5b50919050565b601f8211156200021f57600081815260208120601f850160051c81016020861015620001fa5750805b601f850160051c820191505b818110156200021b5782815560010162000206565b5050505b505050565b81516001600160401b038111156200024057620002406200005e565b620002588162000251845462000195565b84620001d1565b602080601f831160018114620002905760008415620002775750858301515b600019600386901b1c1916600185901b1785556200021b565b600085815260208120601f198616915b82811015620002c157888601518255948401946001909101908401620002a0565b5085821015620002e05787850151600019600388901b60f8161c191681555b5050505050600190811b01905550565b61131580620003006000396000f3fe60806040526004361061011e5760003560e01c80636352211e116100a0578063a22cb46511610064578063a22cb4651461035c578063b88d4fde1461037c578063bf59b3471461039c578063c87b56dd146103bc578063e985e9c5146103dc57600080fd5b80636352211e146102a157806370a08231146102c157806376e5c0de146102e157806395d89b41146103115780639a87aec71461032657600080fd5b806317d70f7c116100e757806317d70f7c1461020b57806320c5429b1461022157806323b872dd1461024157806342842e0e1461026157806342966c681461028157600080fd5b806275a3171461012357806301ffc9a71461014957806306fdde0314610179578063081812fc1461019b578063095ea7b3146101e9575b600080fd5b610136610131366004610de0565b610417565b6040519081526020015b60405180910390f35b34801561015557600080fd5b50610169610164366004610eb8565b610498565b6040519015158152602001610140565b34801561018557600080fd5b5061018e6104ea565b6040516101409190610edc565b3480156101a757600080fd5b506101d16101b6366004610f31565b6004602052600090815260409020546001600160a01b031681565b6040516001600160a01b039091168152602001610140565b3480156101f557600080fd5b50610209610204366004610f4a565b610578565b005b34801561021757600080fd5b5061013660065481565b34801561022d57600080fd5b5061020961023c366004610f31565b61065f565b34801561024d57600080fd5b5061020961025c366004610f74565b6106d3565b34801561026d57600080fd5b5061020961027c366004610f74565b61071b565b34801561028d57600080fd5b5061020961029c366004610f31565b6107f0565b3480156102ad57600080fd5b506101d16102bc366004610f31565b610858565b3480156102cd57600080fd5b506101366102dc366004610fb0565b6108af565b3480156102ed57600080fd5b506101696102fc366004610f31565b60096020526000908152604090205460ff1681565b34801561031d57600080fd5b5061018e610912565b34801561033257600080fd5b506101d1610341366004610f31565b6008602052600090815260409020546001600160a01b031681565b34801561036857600080fd5b50610209610377366004610fcb565b61091f565b34801561038857600080fd5b50610209610397366004611007565b61098b565b3480156103a857600080fd5b5061018e6103b7366004610f31565b610a50565b3480156103c857600080fd5b5061018e6103d7366004610f31565b610a69565b3480156103e857600080fd5b506101696103f73660046110a2565b600560209081526000928352604080842090915290825290205460ff1681565b6006805460009182610428836110d5565b919050555061043983600654610b0b565b60065460009081526007602052604090206104548382611184565b505060068054600090815260086020908152604080832080546001600160a01b031916331790558354835260099091529020805460ff191660011790555492915050565b60006301ffc9a760e01b6001600160e01b0319831614806104c957506380ac58cd60e01b6001600160e01b03198316145b806104e45750635b5e139f60e01b6001600160e01b03198316145b92915050565b600080546104f7906110fc565b80601f0160208091040260200160405190810160405280929190818152602001828054610523906110fc565b80156105705780601f1061054557610100808354040283529160200191610570565b820191906000526020600020905b81548152906001019060200180831161055357829003601f168201915b505050505081565b6000818152600260205260409020546001600160a01b0316338114806105c157506001600160a01b038116600090815260056020908152604080832033845290915290205460ff165b6106035760405162461bcd60e51b815260206004820152600e60248201526d1393d517d055551213d49256915160921b60448201526064015b60405180910390fd5b60008281526004602052604080822080546001600160a01b0319166001600160a01b0387811691821790925591518593918516917f8c5be1e5ebec7d5bd14f71427d1e84f3dd0314c0f7b2291e5b200ac8c7c3b92591a4505050565b6000818152600860205260409020546001600160a01b031633146106bb5760405162461bcd60e51b81526020600482015260136024820152722737ba1030902137b7b5b99022b6b4ba3a32b960691b60448201526064016105fa565b6000908152600960205260409020805460ff19169055565b60405162461bcd60e51b815260206004820152601960248201527f43616e6e6f74207472616e73666572207468697320626f6f6b0000000000000060448201526064016105fa565b6107268383836106d3565b6001600160a01b0382163b15806107cf5750604051630a85bd0160e11b8082523360048301526001600160a01b03858116602484015260448301849052608060648401526000608484015290919084169063150b7a029060a4016020604051808303816000875af115801561079f573d6000803e3d6000fd5b505050506040513d601f19601f820116820180604052508101906107c39190611244565b6001600160e01b031916145b6107eb5760405162461bcd60e51b81526004016105fa90611261565b505050565b6107f981610858565b6001600160a01b0316336001600160a01b03161461084c5760405162461bcd60e51b815260206004820152601060248201526f2737ba1030902137b7b59027bbb732b960811b60448201526064016105fa565b61085581610bdb565b50565b6000818152600260205260409020546001600160a01b0316806108aa5760405162461bcd60e51b815260206004820152600a6024820152691393d517d3525395115160b21b60448201526064016105fa565b919050565b60006001600160a01b0382166108f65760405162461bcd60e51b815260206004820152600c60248201526b5a45524f5f4144445245535360a01b60448201526064016105fa565b506001600160a01b031660009081526003602052604090205490565b600180546104f7906110fc565b3360008181526005602090815260408083206001600160a01b03871680855290835292819020805460ff191686151590811790915590519081529192917f17307eab39ab6107e8899845ad3d59bd9653f200f220920489ca2b5937696c31910160405180910390a35050565b6109968585856106d3565b6001600160a01b0384163b1580610a2d5750604051630a85bd0160e11b808252906001600160a01b0386169063150b7a02906109de9033908a9089908990899060040161128b565b6020604051808303816000875af11580156109fd573d6000803e3d6000fd5b505050506040513d601f19601f82011682018060405250810190610a219190611244565b6001600160e01b031916145b610a495760405162461bcd60e51b81526004016105fa90611261565b5050505050565b600760205260009081526040902080546104f7906110fc565b6000818152600760205260409020805460609190610a86906110fc565b80601f0160208091040260200160405190810160405280929190818152602001828054610ab2906110fc565b8015610aff5780601f10610ad457610100808354040283529160200191610aff565b820191906000526020600020905b815481529060010190602001808311610ae257829003601f168201915b50505050509050919050565b610b158282610ca8565b6001600160a01b0382163b1580610bbb5750604051630a85bd0160e11b80825233600483015260006024830181905260448301849052608060648401526084830152906001600160a01b0384169063150b7a029060a4016020604051808303816000875af1158015610b8b573d6000803e3d6000fd5b505050506040513d601f19601f82011682018060405250810190610baf9190611244565b6001600160e01b031916145b610bd75760405162461bcd60e51b81526004016105fa90611261565b5050565b6000818152600260205260409020546001600160a01b031680610c2d5760405162461bcd60e51b815260206004820152600a6024820152691393d517d3525395115160b21b60448201526064016105fa565b6001600160a01b038116600081815260036020908152604080832080546000190190558583526002825280832080546001600160a01b031990811690915560049092528083208054909216909155518492907fddf252ad1be2c89b69c2b068fc378daa952ba7f163c4a11628f55a4df523b3ef908390a45050565b6001600160a01b038216610cf25760405162461bcd60e51b81526020600482015260116024820152701253959053125117d49150d25412515395607a1b60448201526064016105fa565b6000818152600260205260409020546001600160a01b031615610d485760405162461bcd60e51b815260206004820152600e60248201526d1053149150511657d3525395115160921b60448201526064016105fa565b6001600160a01b038216600081815260036020908152604080832080546001019055848352600290915280822080546001600160a01b0319168417905551839291907fddf252ad1be2c89b69c2b068fc378daa952ba7f163c4a11628f55a4df523b3ef908290a45050565b80356001600160a01b03811681146108aa57600080fd5b634e487b7160e01b600052604160045260246000fd5b60008060408385031215610df357600080fd5b610dfc83610db3565b9150602083013567ffffffffffffffff80821115610e1957600080fd5b818501915085601f830112610e2d57600080fd5b813581811115610e3f57610e3f610dca565b604051601f8201601f19908116603f01168101908382118183101715610e6757610e67610dca565b81604052828152886020848701011115610e8057600080fd5b8260208601602083013760006020848301015280955050505050509250929050565b6001600160e01b03198116811461085557600080fd5b600060208284031215610eca57600080fd5b8135610ed581610ea2565b9392505050565b600060208083528351808285015260005b81811015610f0957858101830151858201604001528201610eed565b81811115610f1b576000604083870101525b50601f01601f1916929092016040019392505050565b600060208284031215610f4357600080fd5b5035919050565b60008060408385031215610f5d57600080fd5b610f6683610db3565b946020939093013593505050565b600080600060608486031215610f8957600080fd5b610f9284610db3565b9250610fa060208501610db3565b9150604084013590509250925092565b600060208284031215610fc257600080fd5b610ed582610db3565b60008060408385031215610fde57600080fd5b610fe783610db3565b915060208301358015158114610ffc57600080fd5b809150509250929050565b60008060008060006080868803121561101f57600080fd5b61102886610db3565b945061103660208701610db3565b935060408601359250606086013567ffffffffffffffff8082111561105a57600080fd5b818801915088601f83011261106e57600080fd5b81358181111561107d57600080fd5b89602082850101111561108f57600080fd5b9699959850939650602001949392505050565b600080604083850312156110b557600080fd5b6110be83610db3565b91506110cc60208401610db3565b90509250929050565b6000600182016110f557634e487b7160e01b600052601160045260246000fd5b5060010190565b600181811c9082168061111057607f821691505b60208210810361113057634e487b7160e01b600052602260045260246000fd5b50919050565b601f8211156107eb57600081815260208120601f850160051c8101602086101561115d5750805b601f850160051c820191505b8181101561117c57828155600101611169565b505050505050565b815167ffffffffffffffff81111561119e5761119e610dca565b6111b2816111ac84546110fc565b84611136565b602080601f8311600181146111e757600084156111cf5750858301515b600019600386901b1c1916600185901b17855561117c565b600085815260208120601f198616915b82811015611216578886015182559484019460019091019084016111f7565b50858210156112345787850151600019600388901b60f8161c191681555b5050505050600190811b01905550565b60006020828403121561125657600080fd5b8151610ed581610ea2565b60208082526010908201526f155394d0519157d49150d2541251539560821b604082015260600190565b6001600160a01b038681168252851660208201526040810184905260806060820181905281018290526000828460a0840137600060a0848401015260a0601f19601f8501168301019050969550505050505056fea26469706673582212207901c951b630dbbe9811a46bd96def4c1e9f73163ac1a511007e956700e0a7d464736f6c634300080f0033",
    "linkReferences": {}
  },
  "methodIdentifiers": {
    "approve(address,uint256)": "095ea7b3",
    "balanceOf(address)": "70a08231",
    "burn(uint256)": "42966c68",
    "emitterToId(uint256)": "9a87aec7",
    "enabled(uint256)": "76e5c0de",
    "getApproved(uint256)": "081812fc",
    "isApprovedForAll(address,address)": "e985e9c5",
    "mintTo(address,string)": "0075a317",
    "name()": "06fdde03",
    "ownerOf(uint256)": "6352211e",
    "revoke(uint256)": "20c5429b",
    "safeTransferFrom(address,address,uint256)": "42842e0e",
    "safeTransferFrom(address,address,uint256,bytes)": "b88d4fde",
    "setApprovalForAll(address,bool)": "a22cb465",
    "supportsInterface(bytes4)": "01ffc9a7",
    "symbol()": "95d89b41",
    "tokenId()": "17d70f7c",
    "tokenToUri(uint256)": "bf59b347",
    "tokenURI(uint256)": "c87b56dd",
    "transferFrom(address,address,uint256)": "23b872dd"
  },
  "id": 7
}